:020000040800F2
:100000006010002099010008E71A0008471800084E
:10001000E51A00081F0300088D31000800000000E9
:100020000000000000000000000000009F1B00080E
:1000300051030008000000009D1B0008A11B0008E0
:10004000B3010008B3010008B3010008B3010008C0
:10005000B3010008B3010008B3010008B3010008B0
:10006000B3010008B3010008B3010008B3010008A0
:10007000B3010008B3010008B3010008B301000890
:10008000B3010008B3010008B3010008B301000880
:10009000B3010008B3010008B3010008B301000870
:1000A0003D1C0008B3010008B3010008B3010008BB
:1000B000491C0008551C0008B3010008B3010008E2
:1000C000B3010008B3010008B3010008B301000840
:1000D000B3010008B3010008B3010008B301000830
:1000E000B3010008B3010008B3010008B301000820
:1000F000B3010008B3010008B3010008B301000810
:10010000B3010008B3010008B3010008B3010008FF
:10011000B3010008B3010008B3010008B3010008EF
:10012000B3010008B3010008B3010008B3010008DF
:10013000B30100080000000000000000B301000847
:10014000B3010008B3010008B3010008091B00084F
:10015000B3010008B3010008B3010008B3010008AF
:10016000B3010008B3010008B3010008B30100089F
:10017000B3010008B3010008000000000000000007
:10018000B3010008DFF80CD000F08CF800480047FD
:10019000FD310008601000200648804706480047EF
:1001A000FEE7FEE7FEE7FEE7FEE7FEE7FEE7FEE727
:1001B000FEE7FEE7F51B0008850100082DE9F05F6A
:1001C0000546002092469B468846064681464024C6
:1001D0001BE0284641464746224600F053F8534666
:1001E0005A46C01A914110D311461846224600F0D3
:1001F0003AF82D1A67EB01084F46224601200021EC
:1002000000F031F817EB00094E41201EA4F1010463
:10021000DFDC484631462A464346BDE8F09F40EAC7
:1002200001039B0703D009E008C9121F08C0042A74
:10023000FAD203E011F8013B00F8013B521EF9D25B
:100240007047D2B201E000F8012B491EFBD2704783
:100250000022F6E710B513460A4604461946FFF792
:10026000F0FF204610BD202A04DB203A00FA02F1FC
:10027000002070479140C2F1200320FA03F3194394
:1002800090407047202A04DB203A21FA02F0002136
:10029000704721FA02F3D040C2F120029140084396
:1002A00019467047064C074D06E0E06840F0010330
:1002B00094E8070098471034AC42F6D3FFF766FF86
:1002C0003C3300085C33000870B58C1810F8015BF3
:1002D00015F0070301D110F8013B2A1106D110F8DF
:1002E000012B03E010F8016B01F8016B5B1EF9D1E3
:1002F0002B0705D40023521E0DD401F8013BFAE769
:1003000010F8013BCB1A921C03E013F8015B01F8D3
:10031000015B521EF9D5A142D8D3002070BDFEE783
:1003200010B501F0BFFE01464078074C28B9887827
:1003300018B9C87808B9087920B10922034801F032
:1003400029FF0420A06010BD0000002054020020FE
:100350007047704731B500F0F9F8009C0546601C05
:1003600000D0641C00F0F2F8401BA042FAD338BD64
:100370002DE9F84FDFF888B100224FF001084FF067
:10038000030A4FF00F090BF1040E00BF0B6808FAC7
:1003900002F42340A3426ED14D68022D01D0122DEC
:1003A0000ED1D50800EB850CDCF820505607F70E6F
:1003B00009FA07F6B5430E69BE402E43CCF820601B
:1003C000066855000F790AFA05FC07F0030726EACC
:1003D0000C06AF40374307604E68012E05D0022E51
:1003E00003D0112E01D0122E0ED18668CF6826EAD6
:1003F0000C06AF40374387604668A6430C79C4F3C8
:100400000014944034434460C4688E6824EA0C04A9
:10041000AE402643C6604C68E4006AD5394C256876
:1004200045F480452560246822F0030504F48044E7
:100430000094354C2E19D6F8084895072F0F09FA65
:1004400007F5AC43314DA84201D1002529E0304DDC
:10045000A84201D1012524E02E4DA84201D1022558
:100460001FE02D4DA84201D103251AE02B4DA842D3
:1004700002D1042515E03CE0294DA84201D1052513
:100480000FE0284DA84201D106250AE0264DA842DA
:1004900001D1072505E0254DA84201D1082500E03E
:1004A0000925BD402543C6F80858DBF800405D46E5
:1004B0004E689C43F60300D51C432C60DEF80040D8
:1004C00075464E689C43B60300D51C432C600C4D0A
:1004D00008352C684E689C43F60200D51C432C60FE
:1004E000074D0C352C684E689C43B60200D51C4362
:1004F0002C60521C102AFFF449AFBDE8F88F0000B1
:10050000003C0140443802400030014000000240FD
:100510000004024000080240000C024000100240AB
:100520000014024000180240001C0240002002405B
:100530000069084000D00120704742694A4042618A
:1005400070470AB1816170470904FBE70148006800
:10055000704700007400002002480168491C0160D7
:1005600070470000740000200B4810B5016841F48A
:1005700000710160016841F480610160016841F42B
:1005800080710160032000F061F8002000F006F89F
:1005900000F018F8002010BD003C024010B50446E1
:1005A00007484FF47A710068B0FBF1F000F04CFF9F
:1005B00000222146501E00F029F8002010BD000046
:1005C000780000200A4808B5016841F480410160C4
:1005D000006800F4804000900548001F016841F069
:1005E00080510160006800F08050009008BD00005C
:1005F0004438024000F01F02012191404009800070
:1006000000F1E020C0F8001170470000F0B40E4B7C
:100610001B680C46C3F30223C3F10705042D00D960
:100620000425191D072901D2002300E0DB1E012645
:1006300006FA05F1491E214099409E40761E16405B
:100640003143F0BC01F050BA0CED00E0064900F077
:10065000070208684FF6FF03184040EA0220034AE9
:1006600010430860704700000CED00E00000FA0540
:100670000068416200207047F0B500680023446ABA
:1006800031B1856A4FF4827604EB15444D1E0AE0C1
:1006900044EA024181620FE006EB8307C7595B1C05
:1006A00004EB1744DBB2AB42F6DB4FF4807303EB91
:1006B000810144EA024242500020F0BDD0F8E40338
:1006C00001F07BBEC1EBC10200EB8202D0F8E40373
:1006D000D26B01F0E8BDC1EBC10200EB8202D0F8A1
:1006E000E403D2F8FC2101F033BED0F8E40301F0BA
:1006F00066BE10B504460A460B0601F07F00C0EB4B
:10070000C00104EB810101D5303101E001F5F87140
:100710000870D009487094F8B003012809D001206E
:1007200084F8B003206802F04DF9002084F8B0038B
:1007300010BD022010BD70B50A460446090602F03D
:100740007F0005D5C0EBC00104EB8101303105E02D
:10075000C2EBC20104EB810101F5F87100258D7037
:100760000870D009487094F8B003012809D001201E
:1007700084F8B003206802F0DCFA84F8B05300205B
:1007800070BD022070BD70B504460D460E0601F026
:100790007F00C0EBC00104EB810101D5303101E0E5
:1007A00001F5F871ED0908704D708A60CB7000D0CA
:1007B000C8800025022B00D10D7194F8B0030128E8
:1007C00009D0012084F8B003206802F04FF82846D1
:1007D00084F8B05370BD022070BD70B50C4601F0B6
:1007E0007F05C5EBC50100EB8101C1F80432C1F8FA
:1007F000FC210023C1F8083281F8F13181F8F05171
:10080000036901F5F871012B00D10A616206027CCF
:10081000006803D002F0EEFA002070BD02F0CAF9C1
:10082000FAE770B50D460446090605F07F0005D5C8
:10083000C0EBC00104EB8101303105E0C5EBC5011F
:1008400004EB810101F5F87101228A700870E80952
:10085000487094F8B003012807D084F8B0232068CA
:1008600002F099FA680602D007E0022070BD217CF0
:1008700004F56D72206802F03DFA002084F8B003A0
:1008800070BD70B50C4601F07F05C5EBC50100EBEE
:1008900081014B64CA6300238B64012381F83130EA
:1008A00001F8305F0369012B00D10A616206027C06
:1008B000006803D002F09EFA002070BD02F07AF9C1
:1008C000FAE700002DE9F84F05680446002628469F
:1008D00002F0E4FB002873D1206802F008FC002835
:1008E0006ED0206802F003FC80074FF0020A02D5A8
:1008F0002168C1F814A0206802F0F9FB010304F597
:100900006D704FF0080900904DD5206802F0D1FBC2
:10091000074646E0F80742D0F1B2206802F0DFFB5C
:100920008046C00729D005EB46110120C1F8080B0D
:100930002069012811D1C6EBC60004EB8000D1F874
:10094000101BD0F8F821C1F31201511AC0F8081297
:10095000D0F8FC111144C0F8FC11F1B22046FFF7A9
:10096000BAFE2069012808D13EB9D4F8040220B9A2
:1009700020680121009A02F0BDF95FEA087006D5EF
:10098000204600F0E7FA05EB4611C1F8089B5FEA44
:10099000C86004D505EB46111020C1F8080B7F088C
:1009A000761C002FB6D1206802F0A1FB40034FF067
:1009B000400B5DD5206802F075FB0746002655E028
:1009C000C7E1F80750D0F1B2206802F079FB804609
:1009D000C00725D00121D5F8342801FA06F082435A
:1009E000C5F8342805EB4610C0F80819206901281D
:1009F00007D1C6EBC60004EB8000D0E90E211144FC
:100A0000C163F1B22046FFF75DFE2069012807D1DE
:100A100036B9606C20B920680121009A02F06AF9A9
:100A20005FEA087003D505EB4611C1F808995FEA43
:100A3000C86004D505EB46111020C1F808095FEA2B
:100A4000486003D505EB4611C1F808B95FEA887024
:100A500003D505EB4611C1F808A95FEA086003D584
:100A60003146204601F056F87F08761C002FA8D1A9
:100A7000206802F03CFB00280CDAD5F8040820F0CE
:100A80000100C5F80408204600F04AFA21684FF03A
:100A900000404861206802F02AFB00050AD5D5F81D
:100AA0000808C00702D0204600F070FA21684FF411
:100AB00000604861206802F01AFBC0044AD5D5F8EE
:100AC000040820F00100C5F804081021206802F095
:100AD000B5FA0020FF2206E005EB4011C1F8082915
:100AE000C1F8082B401C61688142F5D84FF0FF30F7
:100AF000C5F81808D5F81C0840F00110C5F81C0806
:100B0000A06A60B1D5F8840840F00B00C5F88408ED
:100B1000D5F8440840F00B00C5F844080BE0D5F8C0
:100B2000140840F00B00C5F81408D5F8100840F080
:100B30000B00C5F81008D5F8000820F4FE60C5F8D1
:100B40000008217C2068009A02F0D4F820684FF455
:100B500080514161206802F0CAFA80047CD5206887
:100B600001F0C4FE2068C16821F47051C1602068A2
:100B700002F076FA78B10320C4F814B0E06000F017
:100B8000B9FA7549754A014491420AD22068C16890
:100B900041F4705158E00020E0604FF40070606153
:100BA00036E06F496F4A0144914204D22068C1681F
:100BB00041F4605148E06C496C4A0144914204D2CE
:100BC0002068C16841F450513EE06949694A0144D6
:100BD000914204D22068C16841F4405134E0664932
:100BE000664A0144914204D22068C16841F4305100
:100BF0002AE06349634A0144914204D22068C168F3
:100C000041F4205120E06049604A0144914204D2FD
:100C10002068C16841F4105116E05D4942185D49F1
:100C20008A4204D22068C16841F400510CE05A495C
:100C300008445A4988422068C16803D241F4E0510F
:100C400002E009E041F4C051C160204600F052F9D1
:100C500021684FF400504861206802F048FAC0064D
:100C600036D52068816921F010018161D5F8208096
:100C700008F00F00C0EBC00004EB8007C8F343404E
:100C800007F5F877022802D0062812D01BE047F6B5
:100C9000F07118EA010F16D0C8F30A1290462846E0
:100CA000F96802F028FAF8684044F860B8694044EE
:100CB00008E008222846009902F01DFAB969C8F335
:100CC0000A100844B8612068816941F0100181610F
:100CD000206802F00CFA000705D5204600F024F940
:100CE0002168C1F81490206802F001FAC00207D50B
:100CF000F1B2204600F054F821684FF480104861AA
:100D0000206802F0F4F9800207D5F1B2204600F025
:100D10004BF821684FF400104861206802F0E7F9B1
:100D2000400006D52046FFF7C9FC21684FF08040FF
:100D30004861206802F0DBF940070AD52068456861
:100D4000680702D52046FFF7D0FC20684168294398
:100D50004160BDE8F88F0000405327FF00350C00CC
:100D6000401E1BFF40420F0000DC0BFF804F1200B3
:100D7000808CF9FE20D6130060B6E5FE60E3160015
:100D800000D3CEFE40771B00C05BB3FEC0912100B4
:100D900000CA91FE20753800E05459FEE09C4100E5
:100DA000D0F8E40301F054BBD0F8E40301F052BBE7
:100DB000F0B589B004004FF0000556D0032084F848
:100DC000B103204600F054F8206801F0EDFE04F174
:100DD000100120220F466846FFF721FA94E80F0021
:100DE00001F09EFD0021206802F095F90126002007
:100DF000C5EBC50104EB810181F8316001F8305F7A
:100E0000CD80C8708860C8606D1C48610F2DEFD31D
:100E100000214FF4827300BFC1EBC10204EB8202D8
:100E200003EB810582F8F10182F8F011D18682F896
:100E3000F301C2F8F801C2F8FC01C2F8040222680A
:100E40005051491C0F29E7D3202239466846FFF745
:100E5000E6F994E80F0001F005FE84F8B16320681C
:100E600001F0F3FD002009B0F0BD0120FBE7000018
:100E700010B586B0044614216846FFF7E9F92068EA
:100E8000B0F1A04F2FD119480021026842F00102B1
:100E90000260006800F0010005904FF4C05000901F
:100EA0000220CDE90101032003900A200490694645
:100EB0000F48FFF75DFA0D48001D016841F0800101
:100EC00001600A481430016841F480410160006803
:100ED000002200F48040059011464320FFF796FB66
:100EE0004320FFF787FB06B010BD000030380240FA
:100EF0000000024070B50446C068012570B10228A8
:100F000001D0FFF726FA2946D4F8E40301F0EAFA03
:100F1000D4F8E403BDE8704001F0B3BA0025F2E76D
:100F2000D0F8E40301F0CCBAD0F8E40301F0CEBA73
:100F300010B5044690F8B003012809D0012084F8C8
:100F4000B003206802F0FDF8002084F8B00310BD63
:100F5000022010BDD0F8E42300F56D71104601F0B9
:100F6000CDBA10B5044690F8B00301280CD001208A
:100F700084F8B003206801F05CFD206802F048F8B6
:100F8000002084F8B00310BD022010BD10B5044647
:100F9000D0F8E40301F0F1FA2068D0F8001E41F027
:100FA0000101C0F8001E206A002804D00248016830
:100FB00041F00601016010BD10ED00E02DE9F047A1
:100FC0000E46050063D0DFF81C81D8F80000F7B2A8
:100FD00000F00F00B04207D288F80070D8F8000087
:100FE00000F00F00B04252D128683F4C810712D563
:100FF000400703D5206840F4E050206028780007BF
:1010000003D5206840F4604020602068A96820F083
:10101000F000084320602878C0072BD03249686868
:101020000839012810D00968022810D08907002942
:101030002DDA216821F0030101432160FFF786FAD0
:10104000814641F2883A0EE009688903EFE7890199
:10105000EDE700BFFFF77AFAA0EB0901514502D98D
:101060000320BDE8F0872068696800F00C00B0EB51
:10107000810FEFD1D8F80010404601F00F01B142C6
:1010800007D90770006800F00F00B04201D00120BE
:10109000E7E72878400705D52068E96820F4E050A4
:1010A000084320602878000706D52068296920F4C5
:1010B000604040EAC100206000F022F82168F02280
:1010C00092FAA2F201F0F001B2FA82F2D140074A9C
:1010D000515CC840064908600020FFF75FFA002015
:1010E000BFE70000003C0240083802402C330008F3
:1010F0007800002001480068704700007800002058
:10110000154810B5006810F00C02144813D01449AB
:10111000042A0FD0082A0ED10F4C241F22682368FE
:1011200002F03F025B0207D52068C0F38810A0FBE5
:10113000010106E0084610BD2168C1F38811A1FB3A
:1011400000010023FFF73AF82168C1F30141491C6F
:101150004900B0FBF1F010BD083802400024F40053
:1011600040787D012DE9F84F04007BD0DFF8C8827C
:101170002078A8F1040BC007ABF1040536D0D8F8ED
:1011800000104046C1F38101012908D00068C0F376
:10119000810002280AD1DBF80000400206D5286849
:1011A000800323D560680028DFD01FE0A2492079A2
:1011B000891F0870606860B1FFF7C8F9064604E04F
:1011C000FFF7C4F9801B642874D828688003F7D51A
:1011D0000CE0FFF7BBF9064605E000BFFFF7B6F9E4
:1011E000801B6428F0D828688003F7D42078934EB9
:1011F00080074FF0010A4FF0000742D5D8F80010E1
:10120000404611F00C0F08D00068C0F3810002289E
:101210000AD1DBF80000400206D42868800714D504
:10122000E06801281ED110E0E068E0B1C6F800A037
:10123000FFF78CF9814605E0FFF788F9A0EB09007C
:101240000228C1D828688007F6D52868F82292FAC3
:10125000A2F22169B2FA82F220F0F800914008432C
:1012600028600EE0E5E03760FFF770F9814605E0A1
:10127000FFF76CF9A0EB090002281BD8286880074B
:10128000F6D42078000726D56D48616999B1C0F879
:1012900000A0FFF75BF9814606E000BFFFF756F9B3
:1012A000A0EB0900022805D863486C30006880076D
:1012B000F4D510E087E00760FFF748F9814605E0C4
:1012C000FFF744F9A0EB090002287CD85A486C309B
:1012D00000688007F4D42078400749D55648383054
:1012E000016841F080510160006800F0805000907A
:1012F0005448016841F480710160FFF727F9814685
:1013000006E000BFFFF722F9A0EB090002285AD837
:101310004C480068C005F5D5DFF81C91207A09F12A
:10132000680989F80000A06888B1FFF70FF90090FC
:1013300008E000BFFFF70AF90099411A41F288302E
:1013400081426ED8D9F800008007F3D510E0FFF78E
:10135000FDF8009008E000BFFFF7F8F80099411A87
:1013600041F2883081425CD8D9F800008007F3D47C
:10137000A06948B3D8F80010C1F38101022958D000
:101380000228376603D0FFF7E1F804464CE0FFF788
:10139000DDF8074605E000BFFFF7D8F8C01B64285A
:1013A0003FD828688001F7D4D4E90701084347F6FD
:1013B000C07292FAA2F2616AB2FA82F291404FF0E0
:1013C000FF33A26A01E02CE031E003EB52024FF45C
:1013D000403393FAA3F3B3FA83F39A4011430843DB
:1013E0004FF0706292FAA2F2E16AB2FA82F2914090
:1013F0000843CBF80000C6F860A0FFF7A7F8044642
:1014000005E000BFFFF7A2F8001B642809D8286890
:101410008001F7D50BE000BFFFF798F8001B6428A8
:1014200002D90320BDE8F88F28688001F4D4002099
:10143000F8E70120F6E700000838024000004742C4
:10144000800E47420070004010B5401EB0F1807F12
:1014500001D3012010BD4FF0E02460610F2160171F
:1014600000F042FB0020A06107202061002010BD99
:101470007047704730B590F83C20012A20D00122F7
:1014800080F83C20022380F83D3003685C6824F03B
:1014900070045C6003685C680D682C435C600368E2
:1014A0009C6824F080049C6003689C6849680C4335
:1014B0009C6080F83D20002180F83C10084630BD3B
:1014C000022030BD10B5040003D094F83D0010B1E7
:1014D00007E0012010BD002084F83C00204600F009
:1014E0000DF8022084F83D00211D206800F0B8FBB3
:1014F000012084F83D00002010BD000008B50168FF
:101500001E48B1F1804F11D01D4A91421DD1016892
:1015100041F0020101600068012200F00200009029
:1015200011461D20FFF772F81D2021E0016841F0EF
:10153000010101600068002200F0010000901146E6
:101540001C20FFF763F81C2012E00E48814213D1E3
:101550000A48001D016841F48031016000680222E0
:1015600000F48030009011461820FFF74FF8182043
:10157000BDE80840FFF73EB808BD00004038024013
:1015800000040040004001400168CA6842F00102C6
:10159000CA600068016841F00101016000207047E5
:1015A00070B5044690F83C00012817D0012584F856
:1015B0003C50022084F83D002068826822F07702C7
:1015C00022F47F4282600868502837D00DDC202842
:1015D00059D005DC88B3102841D151E0022070BDFC
:1015E000302853D040283AD13FE060282ED07028D0
:1015F0000BD0B0F5805F03D0B0F5005F2FD110E0C5
:101600002068816821F0070115E0CB68D1E901214C
:10161000206800F089FB2168886840F077008860C6
:101620001DE0CB68D1E90121206800F07DFB206836
:10163000816841F48041816011E01EE0CA68496818
:10164000206800F083FB5021206806E0CA684968E2
:10165000206800F08CFB6021206800F06FFB84F8AC
:101660003D50002084F83C0070BDCA68496820687D
:1016700000F06CFB40212068EFE700212068ECE7D8
:1016800010212068E9E720212068E6E73021206862
:10169000E3E7704770B50446006801694FF0000544
:1016A000C943890715D4C168C943890711D4E91E04
:1016B000016101202077206880698007204602D0E0
:1016C000FFF7E7FF04E000F098F8204600F096F8F6
:1016D000257720680169C943490717D4C168C94300
:1016E000490713D46FF004010161022020772068BC
:1016F000806910F4407F204602D0FFF7CAFF04E063
:1017000000F07BF8204600F079F825772068016921
:10171000C943090716D4C168C943090712D46FF039
:1017200008010161042020772068C06980072046F5
:1017300002D0FFF7AEFF04E000F05FF8204600F0B3
:101740005DF8257720680169C943C90617D4C168C7
:10175000C943C90613D46FF0100101610820207736
:101760002068C06910F4407F204602D0FFF791FF47
:1017700004E000F042F8204600F040F825772068A9
:101780000169C943C90708D1C168C943C90704D160
:10179000891E0161204600F033F820680169C943C1
:1017A000090609D4C168C943090605D46FF0800150
:1017B00001612046FFF75CFE20680169C9434906C4
:1017C00009D4C168C943490605D46FF040010161DD
:1017D000204600F037F820680169C94389060BD418
:1017E000C168C943890607D46FF020010161204612
:1017F000BDE87040FFF73DBE70BD70477047000008
:1018000070B5054600680B4CB0F1804F05D1402102
:101810000948FEF792FE01202060084928688842A6
:1018200001D1022121600649884201D103202060B4
:1018300070BD00000C0000200004024000040040C5
:10184000004001407047FEE7F0B500230A24302530
:1018500037261F4611E000BFB4EB107F02D905EB1D
:10186000107C01E006EB107C01F813C001EB430C87
:1018700000015B1C8CF80170DBB29342ECD3F0BD2D
:101880002DE9F041334C02212046FEF751FEB0B164
:1018900008212046FEF74CFEA0B101212046FEF7AC
:1018A00047FE88B104212046FEF742FE70B125159F
:1018B00029462046FEF73CFEA61448B10DE0032061
:1018C000BDE8F0810520FBE70220F9E70420F7E7F7
:1018D00031462046FEF72CFE38B14FF400673946FA
:1018E0002046FEF725FE10B106E00A20E8E7314663
:1018F0002046FEF71DFE28B129462046FEF718FEB9
:1019000010B106E00920DBE739462046FEF710FE5D
:10191000A8B101211048FEF70BFE90B131462046D8
:10192000FEF706FE78B139462046FEF701FE60B1AB
:1019300029462046FEF7FCFD48B10020C0E70B20F9
:10194000BEE70120BCE70620BAE70720B8E7082079
:10195000B6E70000000802400000024070B586B003
:1019600014216846FEF774FC21480024016841F008
:1019700080010160016801F080010591016841F07A
:1019800004010160016801F004010591016841F062
:1019900001010160016801F001010591016841F058
:1019A000020101600068134E00F002000590002261
:1019B000E0213046FEF7C5FD41F60F4001258DE8D8
:1019C000310069460C48FEF7D3FCCDE90054694666
:1019D0000A480295FEF7CCFCE0200090CDE90154C6
:1019E000694630460394FEF7C3FC06B070BD0000A4
:1019F000303802400004024000080240000002406B
:101A000010B586B000241148009401940294039408
:101A100004944FF08041059401603221C0E9011423
:101A20000921C0E903148461FFF74CFD4FF4805095
:101A3000009069460548FFF7B3FD049404A90348E4
:101A40000594FFF717FD06B010BD000094010020BB
:101A500010B586B0002412480094019402940394B7
:101A600004940E490594016040F23F61C0E90114FD
:101A7000F921C0E903148461FFF724FD4FF480507D
:101A8000009069460648FFF78BFD049404A90448BA
:101A90000594FFF7EFFC06B010BD00000004004005
:101AA000D401002010B500220B490C4800F0D4FBF3
:101AB00008B1FEF74EFC0A49084800F084FD08B161
:101AC000FEF747FC054800F0CBFD002803D0BDE839
:101AD0001040FEF73EBC10BD240000205402002040
:101AE00080000020FEE770470907090E002806DA8B
:101AF00000F00F0000F1E02080F8141D704700F1A5
:101B0000E02080F8001470470148FEF7DBBE0000BB
:101B1000780400202DE9F84F0F46C1EBC70100EB18
:101B2000810582460668D5E91101441AA86B303553
:101B3000A04200D20446E01C4FEA900806EB471989
:101B400016E0441AA868A04200D20446E01C4FEAFE
:101B500090089AF810000090A3B2FAB23046E968F3
:101B600001F000FBE8682044E860A8692044A8610F
:101B7000D9F8180980B2404505D9D5E90501814257
:101B800001D20028DDD134B90120D6F83418B8408C
:101B90008143C6F834180020BDE8F88F70477047BD
:101BA000FEF7DABC10B592B030216846FEF750FB64
:101BB00014210CA8FEF74CFB0121022003911021F7
:101BC0000090002404910690CDE90741C021CDE9A1
:101BD000091004200B906846FFF7C4FA0F20CDE9E6
:101BE0000C040E940F9400210CA81094FFF7E6F952
:101BF00012B010BD0D48016841F0010101600B4AAF
:101C00000021083211600268094B1A400260031D6E
:101C1000084A1A60026822F48022026003480C30ED
:101C2000016005495806086070470000003802400E
:101C3000FFFFF6FE1030002408ED00E00148FFF73A
:101C400029BD0000140200200148FFF723BD000059
:101C5000940100200148FFF71DBD0000D4010020C1
:101C6000F0B50268254C264D264E274F274B4FF0E6
:101C7000804CA04209D0604507D0A84205D0B042B0
:101C800003D0B84201D0984204D122F0700E4A68C5
:101C900042EA0E02A0421BD0604519D0A84217D0DC
:101CA000B04215D0B84213D0984211D0184DA84276
:101CB0000ED0184DA8420BD0174DA84208D0174D92
:101CC000A84205D0164DA84202D0164DA84203D115
:101CD00022F44075CA682A4322F080054A692A43E3
:101CE00002608A68C2620A688262A04201D0984299
:101CF00001D10969016301214161F0BD000001408A
:101D00000004004000080040000C004000040140B6
:101D100000400140004401400048014000180040DC
:101D2000001C00400020004010B5846842EA0322F5
:101D300024F47F440A432243826010BD826822F06B
:101D400070020A4342F007018160704710B5036AD0
:101D5000046A24F001040462846924F0F00444EA73
:101D6000021423F00A020A438461026210BD10B516
:101D7000036A23F0100303628369046A23F4704347
:101D800043EA023224F0A00343EA011182610162B6
:101D900010BD10B5D0F8142252689047002010BD35
:101DA000134610B50A46002100F062FB002010BD6A
:101DB000134610B50A46002100F0E8FB002010BDD4
:101DC00010B50446802100F0C6FB2046BDE8104057
:101DD000002100F0C0BB10B505210023C0F8F411AC
:101DE0001A46194600F044FB002010BD10B502232E
:101DF0008261C0F8F431C26113460A46002100F046
:101E0000C5FB002010BD10B504210023C0F8F4115B
:101E10001A46194600F0BAFB002010BD10B50A465C
:101E2000024903A000F0DEF8004810BD6008002061
:101E300048494420436F6E6669670000122008809D
:101E4000004870474400002010B50A46024903A02C
:101E500000F0C8F8004810BD600800204849442040
:101E6000496E746572666163650000000420088035
:101E7000004870474000002010B50A46024903A000
:101E800000F0B0F8004810BD6008002053544D69C0
:101E900063726F656C656374726F6E696373000063
:101EA00010B50A46024903A000F09CF8004810BD96
:101EB0006008002053544D33322048756D616E2008
:101EC000696E7465726661636500000010B51A2062
:101ED00008800A480168001D0468001D0068081891
:101EE00009D008220649FFF7AFFC0549042210314A
:101EF0002046FFF7A9FC0248801E10BD107AFF1F84
:101F00005A000020F8B5044648880D46010A082901
:101F10004BD2DFE801F04A0409174A4A4048D4F896
:101F20001012207C0A6832E0207C02260028D4F8B7
:101F3000140205D0C16A684688470146467041E0F0
:101F4000816AF8E7C0B206282FD2DFE800F0030864
:101F50000D12171CD4F81012207C4A6817E0D4F830
:101F60001012207C8A6812E0D4F81012207CCA6813
:101F70000DE0D4F81012207C0A6908E0D4F81012A1
:101F8000207C4A6903E0D4F81012207C8A696946F3
:101F90009047014616E0207C38B9D4F81402416B12
:101FA00068468847F5E7207C20B129462046FFF7A0
:101FB00007FFF8BDD4F81402016B68468847014654
:101FC00007204870BDF800000028F2D0EA88002AF7
:101FD000EFD0824200D90246ADF800202046FFF73C
:101FE00005FFF8BD70B5002300281DD0044600256C
:101FF00002E06D1CEDB2641C2678002EF9D102249B
:1020000004EB45041480CC545B1C0322CA54002406
:102010005B1C06E0CA545B1CDAB28C54521CD3B26F
:10202000401C0278002AF5D170BD01004FF000007D
:1020300004D0012901D0022901D0022070470120DB
:102040007047D0F81802002101730846704700005D
:1020500010B504460823044A012100F009FAD4F817
:1020600018120020087310BDB800002010B50446F7
:10207000812100F00FF9D4F8180220B101F096F890
:102080000020C4F81802002010BD000029210180A2
:1020900000487047C00000200A21018000487047B6
:1020A000F80000202DE9F04100252E46A8462C46D8
:1020B0002F46FFF7E5FB28496FF009020C2838D2BC
:1020C000DFE800F0371310060A0D161B21262F40FB
:1020D00010254FF00A082CE01025904629E0102525
:1020E0000A2426E01025144623E01025092620E0C6
:1020F0004878012546B2087803E0C878012546B241
:10210000887844B215E04879012546B20879F8E7A5
:102110004878CA780125104446B2087844B28878D5
:1021200006E048784A790125104446B208780FE065
:1021300047B20A480570467080F80280C470077183
:10214000BDE8F081C8784A790125104446B2887804
:1021500044B20879ECE7000000000020880100206C
:1021600070B50546002408230322812100F074F98C
:10217000082303220121284600F06EF9102001F007
:102180009FF8C5F8180218B100210173204670BDF0
:102190000124FBE710B5134690F8FC41D0F8182253
:1021A000032C07D1147B2CB9012414730A46812116
:1021B00000F0ECF9002010BD70B500220D78D0F8C9
:1021C0001832144615F060051BD0202D40D14A78F6
:1021D000022A13D0032A0AD00A2A0BD00B2A03D0D2
:1021E000FFF7EEFD022070BD8878186030E0012214
:1021F000194624E04888000A586029E00122191D88
:102200001DE04D78062D04D00A2D1BD00B2D1FD1BB
:102210001CE04B882225B5EB132F05D1CA88792AFB
:1022200000D979220B4C09E02125B5EB132F05D1FC
:10223000084CCA88183C092A00D909222146FFF710
:10224000D5FD05E0012203F10801F8E788789860E0
:10225000002070BD0401002010B580B1D0F8143208
:1022600013B10023C0F8143209B1C0F810120121D3
:1022700080F8FC11027000F0ADF8002010BD0220C3
:1022800010BD10B5D0F82002FEF755FABDE8104099
:10229000FFF7CBBE10B5D0F82002FEF72AFABDE852
:1022A0001040FFF7C2BE2DE9F0411746044641B188
:1022B000D4F8140242698AB394F8FC01032842D08E
:1022C00043E0D4F8F411002504F11400022933D1BD
:1022D000D0E902639E4207D9F31A83609AB2394665
:1022E0002046FFF765FD12E04068B0FBF3F103FB09
:1022F0001101A1B9984212D3D4F8F81188420ED234
:10230000002211462046FFF753FDC4F8F851002380
:102310001A461946204600F0ABF80DE012E0D4F85A
:102320001402C16829B194F8FC01032801D12046A8
:1023300088472046FFF74FFD94F80002012804D19A
:1023400084F8005201E0204690470020BDE8F0816B
:1023500070B51546044641B1D4F8140282693AB307
:1023600094F8FC01032824D025E0D4F8F41104F5F6
:10237000827003291FD1D0E902218A420BD9531A56
:1023800083600846834200D303469AB2294620461A
:10239000FFF706FD0FE0D4F81402016929B194F8A3
:1023A000FC01032801D1204688472046FFF72BFD7A
:1023B00001E020469047002070BD0020704710B516
:1023C000012180F8FC11D0F814220179526890475D
:1023D000002010BD10B5017831BB14490222C1F8AC
:1023E000E403C0F820124FF0A040086004204860C9
:1023F0000020C1E90320C1E9062008624862886222
:102400000846FEF7D5FC08B1FDF7A3FF8021074879
:10241000FEF72EF9402200210448FEF72DF9802214
:1024200001210248FEF728F9002010BD78040020A1
:102430000A0601F07F01D0F82002C1EBC10100EBD8
:10244000810002D590F83200704790F8F201704791
:10245000002070470020704710B51C461346D0F886
:1024600020022246FEF78FF9BDE81040FFF7DDBDE0
:1024700010B5D0F82002FEF7B0F9BDE81040FFF724
:10248000D4BD70B50022044640231146FFF7E4FF97
:1024900040252B46002280212046C4F81051FFF72A
:1024A000DBFF0120256284F8FC01D4F8180228B172
:1024B000D4F814022179426820469047002070BD6C
:1024C00090F8FD1180F8FC110020704710B590F8CD
:1024D000FC11032904D1D0F81412C96901B188474D
:1024E000002010BD01740020704710B5D0F8200204
:1024F000FEF71EFDBDE81040FFF797BD70B504461E
:1025000000F50270054600F04AF80120C4F8F40115
:10251000B4F80E02C4F8F80194F8080210F01F0194
:102520000AD001290DD0022910D000F080012046E8
:1025300000F011F8002070BD2946204600F095F803
:10254000F8E72946204600F077F9F3E729462046C8
:1025500000F004F9EEE710B5D0F82002FEF761F9BB
:10256000BDE81040FFF761BD10B5D0F82002FEF7BE
:10257000F8FCBDE81040FFF758BD90F8FC1180F85A
:10258000FD11042180F8FC110020704710B5D0F82F
:102590002002FEF776F9BDE81040FFF746BD0A7845
:1025A00002704A7842708A78CB7802EB032242802C
:1025B0000A794B7902EB032282808A79C97902EB8E
:1025C0000121C18070470246002011B1C2F81412E7
:1025D00070470220704710B5D0F8142202241AB1B7
:1025E0001268904700B90024204610BD70B50E4611
:1025F0001A4D897804462970012928D894F8FC01DD
:10260000022802D0032822D105E099B1032061609D
:1026100084F8FC0109E091B1606888420AD0C1B237
:102620002046FFF7B6FB297861602046FFF7D3FF0D
:1026300002280CD02046BDE87040FFF7E4BB022022
:1026400084F8FC0120466160FFF7A3FBF2E7314606
:102650002046BDE87040FFF7B3BB00007C000020BF
:1026600010B5FFF781FF002010BD2DE9F0410026D5
:102670004B78012532460A2B43D2DFE803F03C5861
:102680004251420805422A27FFF73CFC63E004461A
:102690008888C8B9C888B8B9887800F07F0794F8E6
:1026A000FC01032810D084F8FE7139462046FFF75C
:1026B0001CFF2046FFF7A7FB1FB1022084F8FC0196
:1026C00049E084F8FC5146E020461AE0FFF78EFF0F
:1026D00041E0CB88012B14D190F8FC31022B02D0C1
:1026E000032B0ED104E08260012200F1080114E006
:1026F0000122011D11E090F8FC21022A04D0032AD6
:1027000002D0FFF75DFB26E0C560D0F8041209B1E6
:102710000321C160022200F10C01FFF767FB1AE000
:1027200004464888012816D1C4F804520BE0044638
:1027300090F8FC01022801D00328C5D1488801285F
:1027400009D1C4F80422D4F81402826820469047C4
:102750002046FFF758FB3046BDE8F08170B50D46C6
:102760000446287800260979C0F34110012806D0D4
:102770006878A0B301281FD003283FD107E0D4F820
:1027800014022946826820469047002070BD94F8C4
:10279000FC01022817D003282CD1688828B921B160
:1027A000802902D02046FFF7D6FED4F8140229462D
:1027B00082682046904713E094F8FC01022802D07A
:1027C000032817D103E0C9B180291BD116E068881E
:1027D000A0B9480604D02046FFF753FDE5E703E023
:1027E0002046FFF710FB09E094F8FC01022807D00F
:1027F00003280BD029462046FFF7E2FA304670BD89
:102800004806FBD02046FFF7A6FEF7E7080601F0D2
:102810007F0004EB001501D5143501E005F5827544
:102820002046FFF705FE00B101202860022229465C
:102830002046FFF7DBFAE1E770B5054690F8FC01AA
:102840000C4603280DD1207901280AD8D5F81402A6
:10285000826828469047E08830B92846FFF7D3FAC7
:1028600002E02846FFF7ACFA002070BD30B54C7886
:102870001D4B01220D78AA40012CD0F81C4818D01D
:1028800044EA0242C0F81C280A7800EB4210D0F853
:10289000002B12040BD4D0F8002B0C89C4F30A04CB
:1028A0002243C97843EA81410A43C0F8002B002043
:1028B00030BD92B21443C0F81C480C7800EB4410B1
:1028C000D0F800291204F2D4D0F800290D89C5F3FC
:1028D0000A052A43C978890441EA84510A431A4304
:1028E000C0F80029E3E7000000800010D0F80019CC
:1028F0006FF30A01C0F80019D0F80818C1F34101BC
:10290000022905D1D0F8001941F00301C0F80019DF
:10291000D0F8041841F48071C0F804180020704702
:1029200070B50446049D06990B9801290CD0E06807
:1029300040F04000E060204600F028F84FF480307E
:10294000A063012D16D01DE0A16B21F48031A1639D
:10295000E1680D4A1140E160E16821F44011E16055
:10296000012803D1E06840F48010E060204600F0C8
:102970000DF8E6E7A06840F00600A060A06840F00F
:102980002000A060002070BDBFFFBDFF01220C49E8
:1029900002E0521C8A420BD80369002BF9DA026963
:1029A00042F001020261012204E0521C8A4201D974
:1029B000032070470369DB07F7D100207047000050
:1029C000400D030030B54D7801220C7802FA04F373
:1029D000012DD0F83C4816D024EA0343C0F83C3817
:1029E000D0F81C380C78A24023EA0242C0F81C2818
:1029F000097800EB4110D0F8001B21F40041C0F829
:102A0000001B002030BD9BB29C43C0F83C48D0F86E
:102A10001C380C78A24092B29343C0F81C38097855
:102A200000EB4110D0F8001921F40041C0F8001962
:102A3000E7E710B5D0F8041821F00201C0F8041837
:102A40000320FDF787FC002010BD10B5D0F8041856
:102A500041F00201C0F804180320FDF77BFC0020C0
:102A600010BD00002DE9F0470E460446DDE90A0AD4
:102A70000025DDF83480089FA16B41F40021A1639B
:102A8000B8F1000F03D1A16B41F40011A1634FF025
:102A90000009C4F8009ED4F80018C4F800180128F2
:102AA00004D0D4F8000840F0030004E0D4F8000893
:102AB0000BB140F00100C4F800081021204600F0DE
:102AC000BDFA204600F0AAFA4846C4F81098C4F8A7
:102AD00014984FF0FF31C4F81818C4F81C984FF040
:102AE000904CFF2310E000BF04EB4511D1F8002902
:102AF000002A02DAC1F800C901E0C1F80009C1F8F2
:102B00001009C1F808396D1CAE42EDD800210FE064
:102B100004EB4112D2F8005B002D02DAC2F800CBC0
:102B200001E0C2F8000BC2F8100BC2F8083B491CC8
:102B30008E42EDD8D4F8101821F48071C4F8101822
:102B4000012F0AD11449C4F83018D4F83018134AA8
:102B50001143C4F83018D4F83018A0616FF08040E9
:102B600060611FB9A06940F01000A061A0690C4924
:102B70000843A061BAF1000F03D0A06940F008003B
:102B8000A061B8F1010F03D1A06906490843A06113
:102B90000020BDE8F0870000000180000300010074
:102BA00000383C8004000040816821F00101816010
:102BB0000020704730B54D784D4C0B7800EB431337
:102BC000012D28D0D3F8105B6FF31205C3F8105B0A
:102BD0000B7800EB4313D3F8105B2540C3F8105B70
:102BE0004B690BB18B684B610B7800EB4313D3F847
:102BF000104B44F40024C3F8104B0B7800EB431344
:102C0000D3F8104B8D68C5F312052C43C3F8104B55
:102C1000012A5CD061E04D69002DD3F810593BD0FA
:102C20006FF31205C3F810590B7800EB4313D3F878
:102C300010592540C3F810594C698B689C4200D943
:102C40004B610B7800EB4313D3F8104944F4002494
:102C5000C3F810490B7800EB4313D3F810494D69C2
:102C6000C5F3120554EA0504C3F810490B7800EBCC
:102C70004313D3F8004944F00444C3F80049012A3F
:102C80001ED04A6912B3D0F834280B78012199403C
:102C90000A43C0F8342829E02540C3F810590B78BE
:102CA00000EB4313D3F8104944F40024C3F810494F
:102CB0000B7800EB4313D3F810496FF31204D3E7FA
:102CC0000A69097800EB4110C0F814290EE00B786E
:102CD00000EB4313CA68C3F8142B097800EB4110CA
:102CE000D0F8001B41F00441C0F8001B002030BDAB
:102CF000FFFF07E00023C0F8103BD0F8103B43F47F
:102D00000023C0F8103BD0F8103B43F01803C0F884
:102D1000103BD0F8103B43F0C043C0F8103B0129F2
:102D200005D1C0F8142B4FF08021C0F8001B002003
:102D300070474B780A7800EB4212012B0BD0D2F887
:102D4000003B23F40013C2F8003BCA78032A17D0D3
:102D5000022A15D01DE0D2F8003923F40013C2F87E
:102D60000039CA78032A01D0022A12D1097800EB6F
:102D70004110D0F8001941F08051C0F8001908E066
:102D8000097800EB4110D0F8001B41F08051C0F8E9
:102D9000001B002070474B780A7800EB4212012B91
:102DA00014D0D2F8003B002B05DBD2F8003B23F017
:102DB0008043C2F8003B097800EB4110D0F8001BBB
:102DC00041F40011C0F8001B00207047D2F8003910
:102DD000002B05DBD2F8003923F08043C2F800391C
:102DE000097800EB4110D0F8001941F40011C0F847
:102DF0000019E9E778B54E786FF06045834C0B78A1
:102E000000EB4313012E2FD0D3F8106B6FF3120693
:102E1000C3F8106B0B7800EB4313D3F8106B26400C
:102E2000C3F8106B4B69002B7DD08C6823445B1E6C
:102E3000B3FBF4F39BB20C7800EB4414D4F8106BA2
:102E400005EAC3452E43C4F8106B0C7800EB44141C
:102E5000D4F8105B8E685E43C6F312031D43C4F8BA
:102E6000105B012A73D0B2E04E6966B3D3F81069E3
:102E70006FF31206C3F810690B7800EB4313D3F815
:102E800010692640C3F810694C698B681C44641EA5
:102E9000B4FBF3F305EAC3440B7800EB4313D3F818
:102EA00010592C43C3F810490B7800EB4313D3F8A7
:102EB00010494D69C5F312052C43C3F81049CB786E
:102EC000012B16D027E0D3F810592540C3F810592C
:102ED0000B7800EB4313D3F8104944F40024C3F8F3
:102EE00010490B7800EB4313D3F810496FF3120429
:102EF0000FE00B7800EB4313D3F8104924F0C044E3
:102F0000C3F810490B7800EB4313D3F8104944F091
:102F10000054C3F81049012A12D0CB78012B17D0E6
:102F20004B692BB300E037E0D0F834380D7801243A
:102F3000AC402343C0F83438CB78012B08D017E0DD
:102F40000C7800EB44140B69C4F81439F4E738E04A
:102F5000D0F80838DB050B7800EB4313D3F80049B1
:102F600002D444F0005401E044F08054C3F8004916
:102F70000B7800EB4313D3F8004944F00444C3F842
:102F80000049CB78012B3ED100928A8A93B20A780D
:102F9000C96800F0E7F836E00B7800EB4313D3F88C
:102FA000104B8D68C5F312052C43C3F8104B0B78FA
:102FB00000EB4313D3F8104B44F40024C3F8104B38
:102FC0004FE70B7800EB4313CA68C3F8142BCA7899
:102FD000012A0FD1D0F80828D2050A7800EB421256
:102FE000D2F8003B02D443F0005301E043F0805399
:102FF000C2F8003B097800EB4110D0F8001B41F00B
:103000000441C0F8001B002078BD0000FFFF07E06E
:10301000816841F001018160002070470021102289
:103020000261054A491C914201D903207047036996
:10303000DB06F7D400207047400D03000022202358
:1030400043EA811101610549521C8A4201D90320DA
:10305000704703699B06F7D400207047400D0300BA
:103060000021D0F8082812F0060F15D0D0F8082853
:10307000C2F34102012A0CD0D0F80828C2F3410261
:10308000032A06D0D0F80808C0F34100022802D075
:1030900002E0032100E0022108467047406900F089
:1030A00001007047D0F81818D0F81C08084080B20A
:1030B0007047D0F81818D0F81C080840000C70476A
:1030C000D0F81038D0F83428CA4002F0010243EAA0
:1030D000C21200EB4110D0F808091040704700EB15
:1030E0004111D1F8081BD0F8140808407047416915
:1030F00080690840704710B503460020D21C920832
:1031000003F5805303E01C6841F8044B401C9042D7
:10311000F9D3084610BD10B5C26822F0C042C260A3
:10312000012901D021B107E0C16841F0005102E05E
:10313000C16841F08041C1603220FDF70BF90020E9
:1031400010BDD0F8002822F4FE62C0F80028D0F8A4
:1031500000284FF4FE6303EA01110A43C0F8002877
:103160000020704730B50024039D6DB9DB1C9B081F
:1031700000EB023000F5805004E000BF51F8042B52
:103180000260641C9C42F9D3002030BDFEE702E0DF
:1031900008C8121F08C1002AFAD1704770470020E2
:1031A00001E001C1121F002AFBD1704710B50028B1
:1031B00021D0114B0022001F196803E0814203D87F
:1031C0000A4649680029F9D152B11368841A9C4211
:1031D00004D1006818441060104602E0506000E01E
:1031E000186039B102680B1A934203D10B681A4474
:1031F00002604968416010BD800100201FB5FDF7E5
:10320000B3F9FEF7CFFCFEF7A9FBFEF7F9FBFEF7DB
:1032100049FCFEF71DFC002425480094019402940B
:1032200022490394016040F23F61C0E9011440F279
:10323000BB21C0E903148461FEF744F94FF48050C8
:10324000009069461A48FEF7ABF919488038FEF736
:103250009BF917484038FEF797F91548FEF794F99F
:10326000144E154D28680028FCD0012804D00228EF
:1032700005D0032818D10DE0FDF752F814E08021A5
:103280003046FDF75AF90C490922091D0B48FEF793
:1032900081FF09E0084909220D310848FEF77AFF4D
:1032A00020213046FDF749F92C60DBE70040014062
:1032B00014020020000402400C00002054020020F0
:1032C000F0B50B30154D20F007010024144A0FE033
:1032D00003688B420BD38B4205D95E1A43184768AB
:1032E000C3E9006700E04368136002C004E0021D08
:1032F00010680028ECD12046002802D1286808B1C7
:103300000020F0BD064A07481060074A121A22F052
:103310000702C0E9002401202860D7E784010020CB
:1033200080010020640A0020600C002000000000E2
:103330000000000001020304060708095C330008CE
:103340000000002088010000C80200085034000876
:1033500088010020D80E00009E3100081205222BA3
:10336000A2048201A210133D1E1B086D041A7904E9
:103370001AA1041ACD041A1D041A490417040309DA
:103380000412013202164083042B571D020102036E
:1033900045031F1A035324F41B61215C12201B08F0
:1033A000B908811A43101A5104C11A8D1069049A80
:1033B000991C140902291301011CE03209C5197A6C
:1033C0001201150921110114012279160705810343
:1033D000082D0A07050107292C691A314B0A06B482
:1033E00029F0101005010906A1018501050719E062
:1033F00029E71518132501950875018102950175B6
:1034000008810395067508141AFF1E112C29658181
:103410001E280B05750105081901290591241D03B6
:103420009103C0431A024315100901A11B05091B92
:103430003A03475A0347198A1922B0123009310951
:10344000381581257F750895038106C0C0000000EE
:040000050800018569
:00000001FF
