:020000040800F2
:10000000C80F0020990100085F1700086D1600084E
:100010005D1700081F030008F12B00080000000016
:100020000000000000000000000000001D18000893
:100030002103000800000000191800081F1800081C
:10004000B301000815180008B3010008B301000847
:10005000D10300081B180008B3010008B301000811
:10006000B3010008B3010008B3010008B3010008A0
:10007000B3010008B3010008B3010008B301000890
:10008000B3010008B3010008B3010008B301000880
:10009000B3010008B3010008B3010008B301000870
:1000A000B3010008B3010008B3010008B301000860
:1000B000B3010008B3010008B3010008B301000850
:1000C000B3010008B3010008B3010008B301000840
:1000D000B3010008B3010008B3010008B301000830
:1000E000B3010008B3010008B3010008B301000820
:1000F000B3010008B3010008B3010008B301000810
:10010000B3010008B3010008B3010008B3010008FF
:10011000B3010008B3010008B3010008B3010008EF
:10012000B3010008B3010008B3010008B3010008DF
:10013000B30100080000000000000000B301000847
:10014000B3010008B3010008B301000881170008DB
:10015000B3010008B3010008B3010008B3010008AF
:10016000B3010008B3010008B3010008B30100089F
:10017000B3010008B3010008000000000000000007
:10018000B3010008DFF80CD000F08CF800480047FD
:100190002D2D0008C80F002006488047064800475C
:1001A000FEE7FEE7FEE7FEE7FEE7FEE7FEE7FEE727
:1001B000FEE7FEE775180008850100082DE9F05FED
:1001C0000546002092469B468846064681464024C6
:1001D0001BE0284641464746224600F053F8534666
:1001E0005A46C01A914110D311461846224600F0D3
:1001F0003AF82D1A67EB01084F46224601200021EC
:1002000000F031F817EB00094E41201EA4F1010463
:10021000DFDC484631462A464346BDE8F09F40EAC7
:1002200001039B0703D009E008C9121F08C0042A74
:10023000FAD203E011F8013B00F8013B521EF9D25B
:100240007047D2B201E000F8012B491EFBD2704783
:100250000022F6E710B513460A4604461946FFF792
:10026000F0FF204610BD202A04DB203A00FA02F1FC
:10027000002070479140C2F1200320FA03F3194394
:1002800090407047202A04DB203A21FA02F0002136
:10029000704721FA02F3D040C2F120029140084396
:1002A00019467047064C074D06E0E06840F0010330
:1002B00094E8070098471034AC42F6D3FFF766FF86
:1002C000CC2D0008EC2D000870B58C1810F8015BDF
:1002D00015F0070301D110F8013B2A1106D110F8DF
:1002E000012B03E010F8016B01F8016B5B1EF9D1E3
:1002F0002B0705D40023521E0DD401F8013BFAE769
:1003000010F8013BCB1A921C03E013F8015B01F8D3
:10031000015B521EF9D5A142D8D3002070BDFEE783
:1003200070477047002229B101291FD0022920D02F
:100330004FF4407210490B6823F440730B600B6854
:1003400013430B600A6822F0F8020A600A68F82377
:1003500093FAA3F3B3FA83F3984040F00200024308
:100360000A60086840F48030086070474FF480727B
:10037000E0E74FF40072DDE7103C024013480168EB
:1003800089050FD5016821F400710160016841F40D
:1003900000610160016821F400610160016841F4BD
:1003A00000710160016849050FD5016821F4806181
:1003B0000160016841F480510160016821F48051BD
:1003C0000160016841F4806101607047003C0240B7
:1003D00000F044B817490868C206174805D5C26935
:1003E00042F00802C26110220A600A68920605D52E
:1003F000C26942F00402C26120220A600A68520601
:1004000005D5C26942F00202C26140220A600A6850
:10041000120605D5C26942F00102C26180220A605B
:100420000A68920705D5C26942F01002C261022033
:10043000086070470C3C0240A809002031B500F06C
:100440005BF9009C0546601C00D0641C00F054F968
:10045000401BA042FAD338BD704700002DE9F0419F
:100460002F4F38682F4C10F0F20F4FF0FF384FF03D
:1004700000050DD0207801282DD0207802282ED01C
:10048000D4F81460FFF7A6FF304600F04DF8257051
:100490003868C0070BD0012038602078012820D0B0
:1004A0002078022837D06069FFF7D6FF25702078C2
:1004B00000280ED11A48001D016821F0FF010160DB
:1004C000016821F080710160016821F00071016014
:1004D0002576BDE8F081E668C4F80C80D2E726698D
:1004E000D0E76068401E6060606850B1E068FFF768
:1004F000B3FFE068401CE060E068217AFFF712FF7C
:10050000D5E74646C4F80C802570FFF737FF304624
:10051000FFF7A2FFCBE7FFF731FF2069C4E7000038
:100520000C3C0240A8090020704700002DE9F84F5C
:10053000DFF888B100224FF001084FF0030A4FF0B6
:100540000F090BF1040E00BF0B6808FA02F42340F8
:10055000A3426ED14D68022D01D0122D0ED1D508C7
:1005600000EB850CDCF820505607F70E09FA07F669
:10057000B5430E69BE402E43CCF820600668550096
:100580000F790AFA05FC07F0030726EA0C06AF40CC
:10059000374307604E68012E05D0022E03D0112E7E
:1005A00001D0122E0ED18668CF6826EA0C06AF4025
:1005B000374387604668A6430C79C4F3001494401F
:1005C00034434460C4688E6824EA0C04AE40264379
:1005D000C6604C68E4006AD5394C256845F480450E
:1005E0002560246822F0030504F480440094354C0F
:1005F0002E19D6F8084895072F0F09FA07F5AC43CE
:10060000314DA84201D1002529E0304DA84201D149
:10061000012524E02E4DA84201D102251FE02D4DD9
:10062000A84201D103251AE02B4DA84202D104258E
:1006300015E03CE0294DA84201D105250FE0284DE9
:10064000A84201D106250AE0264DA84201D107257E
:1006500005E0254DA84201D1082500E00925BD404F
:100660002543C6F80858DBF800405D464E689C43B9
:10067000F60300D51C432C60DEF8004075464E683A
:100680009C43B60300D51C432C600C4D08352C68E8
:100690004E689C43F60200D51C432C60074D0C3578
:1006A0002C684E689C43B60200D51C432C60521C3B
:1006B000102AFFF449AFBDE8F88F0000003C01406C
:1006C0004438024000300140000002400004024073
:1006D00000080240000C02400010024000140240DA
:1006E00000180240001C024000200240006908403F
:1006F00000D00120704700000148006870470000EA
:100700006400002002480168491C01607047000035
:10071000640000200B4810B5016841F400710160CD
:10072000016841F480610160016841F480710160F9
:10073000032000F079F8002000F006F800F018F827
:10074000002010BD003C024010B5044607484FF49D
:100750007A710068B0FBF1F000F074FF00222146CE
:10076000501E00F041F8002010BD0000680000207D
:10077000164808B5016841F480410160006800F442
:10078000804000901148001F016841F080510160D5
:100790000068002200F0805000901146012000F017
:1007A00023F8012000F014F800221146042000F084
:1007B0001BF8042000F00CF800221146052000F080
:1007C00013F8BDE80840052000F002B844380240A4
:1007D00000F01F02012191404009800000F1E0205B
:1007E000C0F8001170470000F0B40E4B1B680C46B7
:1007F000C3F30223C3F10705042D00D90425191DF5
:10080000072901D2002300E0DB1E012606FA05F1CC
:10081000491E214099409E40761E16403143F0BC4F
:1008200000F09EBF0CED00E0064900F007020868EA
:100830004FF6FF03184040EA0220034A10430860C5
:10084000704700000CED00E00000FA05006841620E
:1008500000207047F0B500680023446A31B1856A12
:100860004FF4827604EB15444D1E0AE044EA02413F
:1008700081620FE006EB8307C7595B1C04EB17444A
:10088000DBB2AB42F6DB4FF4807303EB810144EA49
:10089000024242500020F0BDD0F8E40301F0BFBA9C
:1008A000C1EBC10200EB8202D0F8E403D26B01F08D
:1008B0002CBAC1EBC10200EB8202D0F8E403D2F8FB
:1008C000FC2101F077BAD0F8E40301F0AABA10B520
:1008D00004460A460B0601F07F00C0EBC00104EBA2
:1008E000810101D5303101E001F5F8710870D009BE
:1008F000487094F8B003012809D0012084F8B003AF
:10090000206801F091FD002084F8B00310BD0220A2
:1009100010BD70B50A460446090602F07F0005D5F1
:10092000C0EBC00104EB8101303105E0C2EBC20134
:1009300004EB810101F5F87100258D700870D00974
:10094000487094F8B003012809D0012084F8B0035E
:10095000206801F020FF84F8B053002070BD022011
:1009600070BD70B504460D460E0601F07F00C0EB69
:10097000C00104EB810101D5303101E001F5F871CE
:10098000ED0908704D708A60CB7000D0C8800025DA
:10099000022B00D10D7194F8B003012809D0012079
:1009A00084F8B003206801F093FC284684F8B05323
:1009B00070BD022070BD70B50C4601F07F05C5EB1F
:1009C000C50100EB8101C1F80432C1F8FC2100230C
:1009D000C1F8083281F8F13181F8F051036901F56D
:1009E000F871012B00D10A616206027C006803D015
:1009F00001F032FF002070BD01F00EFEFAE770B585
:100A00000D460446090605F07F0005D5C0EBC00180
:100A100004EB8101303105E0C5EBC50104EB810138
:100A200001F5F87101228A700870E809487094F89D
:100A3000B003012807D084F8B023206801F0DDFE60
:100A4000680602D007E0022070BD217C04F56D72BB
:100A5000206801F081FE002084F8B00370BD70B5FD
:100A60000C4601F07F05C5EBC50100EB81014B642D
:100A7000CA6300238B64012381F8313001F8305FB1
:100A80000369012B00D10A616206027C006803D071
:100A900001F0E2FE002070BD01F0BEFDFAE70000AB
:100AA0002DE9F84F056804460026284602F028F88C
:100AB000002873D1206802F04CF800286ED020681E
:100AC00002F047F880074FF0020A02D52168C1F80A
:100AD00014A0206802F03DF8010304F56D704FF09A
:100AE000080900904DD5206802F015F8074646E049
:100AF000F80742D0F1B2206802F023F88046C00720
:100B000029D005EB46110120C1F8080B2069012806
:100B100011D1C6EBC60004EB8000D1F8101BD0F851
:100B2000F821C1F31201511AC0F80812D0F8FC11D3
:100B30001144C0F8FC11F1B22046FFF7BAFE20695B
:100B4000012808D13EB9D4F8040220B92068012157
:100B5000009A01F001FE5FEA087006D5204600F019
:100B6000E7FA05EB4611C1F8089B5FEAC86004D5B7
:100B700005EB46111020C1F8080B7F08761C002FEA
:100B8000B6D1206801F0E5FF40034FF0400B5DD582
:100B9000206801F0B9FF0746002655E0C7E1F807D5
:100BA00050D0F1B2206801F0BDFF8046C00725D0CB
:100BB0000121D5F8342801FA06F08243C5F834281B
:100BC00005EB4610C0F808192069012807D1C6EBCB
:100BD000C60004EB8000D0E90E211144C163F1B2DC
:100BE0002046FFF75DFE2069012807D136B9606C09
:100BF00020B920680121009A01F0AEFD5FEA08707B
:100C000003D505EB4611C1F808995FEAC86004D521
:100C100005EB46111020C1F808095FEA486003D5CA
:100C200005EB4611C1F808B95FEA887003D505EBFA
:100C30004611C1F808A95FEA086003D5314620468D
:100C400000F0A4FD7F08761C002FA8D1206801F0D9
:100C500080FF00280CDAD5F8040820F00100C5F860
:100C60000408204600F04AFA21684FF0004048612D
:100C7000206801F06EFF00050AD5D5F80808C00706
:100C800002D0204600F070FA21684FF400604861FD
:100C9000206801F05EFFC0044AD5D5F8040820F0B2
:100CA0000100C5F804081021206801F0F9FE0020B9
:100CB000FF2206E005EB4011C1F80829C1F8082B16
:100CC000401C61688142F5D84FF0FF30C5F8180824
:100CD000D5F81C0840F00110C5F81C08A06A60B1E6
:100CE000D5F8840840F00B00C5F88408D5F844080E
:100CF00040F00B00C5F844080BE0D5F8140840F0AC
:100D00000B00C5F81408D5F8100840F00B00C5F822
:100D10001008D5F8000820F4FE60C5F80008217C12
:100D20002068009A01F018FD20684FF4805141615D
:100D3000206801F00EFF80047CD5206801F008FBDC
:100D40002068C16821F47051C160206801F0BAFECA
:100D500078B10320C4F814B0E06000F0C9FA754916
:100D6000754A014491420AD22068C16841F4705129
:100D700058E00020E0604FF40070606136E06F4999
:100D80006F4A0144914204D22068C16841F4605125
:100D900048E06C496C4A0144914204D22068C16821
:100DA00041F450513EE06949694A0144914204D2FC
:100DB0002068C16841F4405134E06649664A014404
:100DC000914204D22068C16841F430512AE063495D
:100DD000634A0144914204D22068C16841F4205121
:100DE00020E06049604A0144914204D22068C16811
:100DF00041F4105116E05D4942185D498A4204D21F
:100E00002068C16841F400510CE05A4908445A492D
:100E100088422068C16803D241F4E05102E009E051
:100E200041F4C051C160204600F052F921684FF4EE
:100E300000504861206801F08CFEC00636D520685D
:100E4000816921F010018161D5F8208008F00F0040
:100E5000C0EBC00004EB8007C8F3434007F5F87708
:100E6000022802D0062812D01BE047F6F07118EADB
:100E7000010F16D0C8F30A1290462846F96801F00F
:100E80006CFEF8684044F860B869404408E0082205
:100E90002846009901F061FEB969C8F30A100844B8
:100EA000B8612068816941F010018161206801F01A
:100EB00050FE000705D5204600F024F92168C1F84E
:100EC0001490206801F045FEC00207D5F1B220461B
:100ED00000F054F821684FF480104861206801F058
:100EE00038FE800207D5F1B2204600F04BF82168A9
:100EF0004FF400104861206801F02BFE400006D539
:100F00002046FFF7C9FC21684FF080404861206807
:100F100001F01FFE40070AD520684568680702D522
:100F20002046FFF7D0FC2068416829434160BDE8B6
:100F3000F88F0000405327FF00350C00401E1BFFB8
:100F400040420F0000DC0BFF804F1200808CF9FE46
:100F500020D6130060B6E5FE60E3160000D3CEFE97
:100F600040771B00C05BB3FEC091210000CA91FE18
:100F700020753800E05459FEE09C4100D0F8E403AD
:100F800000F098BFD0F8E40300F096BFF0B589B048
:100F900004004FF0000556D0032084F8B10320462A
:100FA00000F054F8206801F031FB04F11001202218
:100FB0000F466846FFF733F994E80F0001F0E2F9B5
:100FC0000021206801F0D9FD01260020C5EBC501F4
:100FD00004EB810181F8316001F8305FCD80C87089
:100FE0008860C8606D1C48610F2DEFD300214FF45D
:100FF000827300BFC1EBC10204EB820203EB8105E7
:1010000082F8F10182F8F011D18682F8F301C2F87A
:10101000F801C2F8FC01C2F8040222685051491CD0
:101020000F29E7D3202239466846FFF7F8F894E8FD
:101030000F0001F049FA84F8B163206801F037FA33
:10104000002009B0F0BD0120FBE7000010B586B01C
:10105000044614216846FFF7FBF82068B0F1A04F62
:101060002FD119480021026842F001020260006895
:1010700000F0010005904FF4C05000900220CDE92F
:101080000101032003900A20049069460F48FFF7EE
:101090004DFA0D48001D016841F0800101600A48C9
:1010A0001430016841F4804101600068002200F4BE
:1010B0008040059011464320FFF796FB4320FFF741
:1010C00087FB06B010BD000030380240000002402F
:1010D00070B50446C068012570B1022801D0FFF741
:1010E00020F92946D4F8E40300F02EFFD4F8E403F5
:1010F000BDE8704000F0F7BE0025F2E7D0F8E40349
:1011000000F010BFD0F8E40300F012BF10B50446A1
:1011100090F8B003012809D0012084F8B0032068BA
:1011200001F041FD002084F8B00310BD022010BD85
:10113000D0F8E42300F56D71104600F011BF10B532
:10114000044690F8B00301280CD0012084F8B003C5
:10115000206801F0A0F9206801F08CFC002084F8E0
:10116000B00310BD022010BD10B50446D0F8E40352
:1011700000F035FF2068D0F8001E41F00101C0F8F2
:10118000001E206A002804D00248016841F00601D0
:10119000016010BD10ED00E07047000010B5054C77
:1011A0002068C00304D5FFF7F7FF4FF480302060BC
:1011B00010BD0000143C01402DE9F0470E4605002B
:1011C00063D0DFF81C81D8F80000F7B200F00F0000
:1011D000B04207D288F80070D8F8000000F00F0085
:1011E000B04252D128683F4C810712D5400703D541
:1011F000206840F4E05020602878000703D520687C
:1012000040F4604020602068A96820F0F0000843A6
:1012100020602878C0072BD0324968680839012837
:1012200010D00968022810D0890700292DDA21681A
:1012300021F0030101432160FFF75EFA814641F28C
:10124000883A0EE009688903EFE78901EDE700BFFE
:10125000FFF752FAA0EB0901514502D90320BDE87E
:10126000F0872068696800F00C00B0EB810FEFD1C7
:10127000D8F80010404601F00F01B14207D90770BD
:10128000006800F00F00B04201D00120E7E72878A5
:10129000400705D52068E96820F4E0500843206045
:1012A0002878000706D52068296920F4604040EAC4
:1012B000C100206000F022F82168F02292FAA2F228
:1012C00001F0F001B2FA82F2D140074A515CC84005
:1012D000064908600020FFF737FA0020BFE700004A
:1012E000003C024008380240BC2D00086800002085
:1012F000014800687047000068000020154810B5DC
:10130000006810F00C02144813D01449042A0FD0BE
:10131000082A0ED10F4C241F2268236802F03F02D6
:101320005B0207D52068C0F38810A0FB010106E02E
:10133000084610BD2168C1F38811A1FB00010023FC
:10134000FEF73CFF2168C1F30141491C4900B0FB95
:10135000F1F010BD083802400024F40040787D010F
:101360002DE9F84F04007BD0DFF8C8822078A8F17F
:10137000040BC007ABF1040536D0D8F80010404686
:10138000C1F38101012908D00068C0F3810002285F
:101390000AD1DBF80000400206D52868800323D577
:1013A00060680028DFD01FE0A2492079891F0870FB
:1013B000606860B1FFF7A0F9064604E0FFF79CF90A
:1013C000801B642874D828688003F7D50CE0FFF7E9
:1013D00093F9064605E000BFFFF78EF9801B6428ED
:1013E000F0D828688003F7D42078934E80074FF018
:1013F000010A4FF0000742D5D8F80010404611F01E
:101400000C0F08D00068C0F3810002280AD1DBF875
:101410000000400206D42868800714D5E06801283F
:101420001ED110E0E068E0B1C6F800A0FFF764F953
:10143000814605E0FFF760F9A0EB09000228C1D85A
:1014400028688007F6D52868F82292FAA2F2216966
:10145000B2FA82F220F0F8009140084328600EE0D2
:10146000E5E03760FFF748F9814605E0FFF744F90A
:10147000A0EB090002281BD828688007F6D4207842
:10148000000726D56D48616999B1C0F800A0FFF743
:1014900033F9814606E000BFFFF72EF9A0EB090003
:1014A000022805D863486C3000688007F4D510E046
:1014B00087E00760FFF720F9814605E0FFF71CF998
:1014C000A0EB090002287CD85A486C3000688007DD
:1014D000F4D42078400749D556483830016841F0A7
:1014E00080510160006800F080500090544801680D
:1014F00041F480710160FFF7FFF8814606E000BF0C
:10150000FFF7FAF8A0EB090002285AD84C48006807
:10151000C005F5D5DFF81C91207A09F1680989F832
:101520000000A06888B1FFF7E7F8009008E000BF6E
:10153000FFF7E2F80099411A41F2883081426ED8F3
:10154000D9F800008007F3D510E0FFF7D5F8009038
:1015500008E000BFFFF7D0F80099411A41F2883047
:1015600081425CD8D9F800008007F3D4A06948B361
:10157000D8F80010C1F38101022958D0022837663B
:1015800003D0FFF7B9F804464CE0FFF7B5F807467B
:1015900005E000BFFFF7B0F8C01B64283FD82868FB
:1015A0008001F7D4D4E90701084347F6C07292FAE4
:1015B000A2F2616AB2FA82F291404FF0FF33A26A5E
:1015C00001E02CE031E003EB52024FF4403393FA98
:1015D000A3F3B3FA83F39A40114308434FF07062C8
:1015E00092FAA2F2E16AB2FA82F291400843CBF891
:1015F0000000C6F860A0FFF77FF8044605E000BFD2
:10160000FFF77AF8001B642809D828688001F7D50D
:101610000BE000BFFFF770F8001B642802D903201D
:10162000BDE8F88F28688001F4D40020F8E7012095
:10163000F6E700000838024000004742800E4742AB
:101640000070004010B5401EB0F1807F01D3012032
:1016500010BD4FF0E02460610F21601700F080F8AA
:101660000020A06107202061002010BDFEE70000DF
:10167000F0B500230A24302537261F4611E000BFAD
:10168000B4EB107F02D905EB107C01E006EB107C77
:1016900001F813C001EB430C00015B1C8CF80170D6
:1016A000DBB29342ECD3F0BD30B587B0142168466D
:1016B000FEF7CEFD16480025016841F0800101606B
:1016C000016801F080010591016841F004010160A9
:1016D000016801F004010591016841F00101016018
:1016E0000068012400F00100059041F60F40CDE9AB
:1016F0000005694602940748FEF718FFCDE900454A
:10170000694605480294FEF711FF07B030BD00009E
:1017100030380240000802400000024010B50022AC
:101720000B490C4800F0CAFA08B1FEF7FAFD0A4965
:10173000084800F07AFC08B1FEF7F3FD054800F018
:10174000C1FC002803D0BDE81040FEF7EABD10BD83
:10175000040000209C01002070000020FEE770477C
:101760000907090E002806DA00F00F0000F1E0205A
:1017700080F8141D704700F1E02080F800147047D5
:101780000148FFF78DB90000C00300202DE9F84F94
:101790000F46C1EBC70100EB810582460668D5E91B
:1017A0001101441AA86B3035A04200D20446E01C57
:1017B0004FEA900806EB471916E0441AA868A042C1
:1017C00000D20446E01C4FEA90089AF810000090FE
:1017D000A3B2FAB23046E96801F0F6F9E8682044AD
:1017E000E860A8692044A861D9F8180980B240458A
:1017F00005D9D5E90501814201D20028DDD134B9EE
:101800000120D6F83418B8408143C6F834180020B7
:10181000BDE8F88FFFF7C2BC704770477047FEF70E
:1018200071BF10B592B030216846FEF711FD14214A
:101830000CA8FEF70DFD012102200391102100905C
:10184000002404910690CDE90741C021CDE909109B
:1018500004200B906846FFF783FD0F20CDE90C04B0
:101860000E940F9400210CA81094FFF7A5FC12B061
:1018700010BD00000D48016841F0010101600B4AF4
:101880000021083211600268094B1A400260031DF2
:10189000084A1A60026822F48022026003480C3071
:1018A0000160054958060860704700000038024092
:1018B000FFFFF6FE1030002408ED00E010B5D0F870
:1018C000142252689047002010BD134610B50A46F6
:1018D000002100F0FFFA002010BD134610B50A46A3
:1018E000002100F085FB002010BD10B504468021CA
:1018F00000F063FB2046BDE81040002100F05DBB16
:1019000010B505210023C0F8F4111A46194600F05D
:10191000E1FA002010BD10B502238261C0F8F43155
:10192000C26113460A46002100F062FB002010BD90
:1019300010B504210023C0F8F4111A46194600F02E
:1019400057FB002010BD000010B50A46024903A055
:1019500000F0DEF8004810BDA807002048494420E8
:10196000436F6E6669670000122008800048704768
:101970002400002010B50A46024903A000F0C8F870
:10198000004810BDA807002048494420496E7465EE
:10199000726661636500000004200880004870479B
:1019A0002000002010B50A46024903A000F0B0F85C
:1019B000004810BDA807002053544D6963726F653D
:1019C0006C656374726F6E696373000010B50A46CC
:1019D000024903A000F09CF8004810BDA8070020B1
:1019E00053544D33322048756D616E20696E7465B5
:1019F000726661636500000010B51A2008800A480D
:101A00000168001D0468001D0068081809D008223C
:101A10000649FFF72DFE0549042210312046FFF745
:101A200027FE0248801E10BD107AFF1F3A000020DA
:101A3000F8B5044648880D46010A08294BD2DFE86C
:101A400001F04A0409174A4A4048D4F81012207C91
:101A50000A6832E0207C02260028D4F8140205D05F
:101A6000C16A684688470146467041E0816AF8E7E6
:101A7000C0B206282FD2DFE800F003080D12171CB1
:101A8000D4F81012207C4A6817E0D4F81012207C99
:101A90008A6812E0D4F81012207CCA680DE0D4F8ED
:101AA0001012207C0A6908E0D4F81012207C4A69E0
:101AB00003E0D4F81012207C8A69694690470146F9
:101AC00016E0207C38B9D4F81402416B6846884788
:101AD000F5E7207C20B129462046FFF706FFF8BD38
:101AE000D4F81402016B6846884701460720487005
:101AF000BDF800000028F2D0EA88002AEFD0824228
:101B000000D90246ADF800202046FFF704FFF8BDDB
:101B100070B5002300281DD00446002502E06D1C8E
:101B2000EDB2641C2678002EF9D1022404EB4504A2
:101B30001480CC545B1C0322CA5400245B1C06E0B6
:101B4000CA545B1CDAB28C54521CD3B2401C0278CB
:101B5000002AF5D170BD01004FF0000004D001292A
:101B600001D0022901D00220704701207047D0F82F
:101B70001802002101730846704710B50446812100
:101B800000F0BAF8D4F8180220B101F041F80020B2
:101B9000C4F81802002010BD04490A6822210180FF
:101BA0000AB10348704702482438704700000020FB
:101BB000CC0000200A21018000487047FC00002072
:101BC00070B50546002404230322812100F076F934
:101BD000102001F0BDF8C5F8180218B100210173FA
:101BE000204670BD0124FBE710B5134690F8FC4178
:101BF000D0F81822032C07D1147B2CB901241473BC
:101C00000A46812100F0F4F9002010BD70B50022D1
:101C10000D78D0F81832144615F060051BD0202D31
:101C200046D14A78022A13D0032A0AD00A2A0BD0B6
:101C30000B2A03D0FFF759FE022070BD8878186088
:101C400036E0012219462AE04888000A58602FE051
:101C50000122191D23E04D78062D04D00A2D21D034
:101C60000B2D25D122E04B882225B5EB132F0BD16C
:101C7000CA884A2A00D94A220E49096809B10E4C7D
:101C80000CE00D4C403409E02125B5EB132F05D1B4
:101C9000094CCA88183C092A00D909222146FFF7B5
:101CA0003AFE05E0012203F10801F8E78878986020
:101CB000002070BD000000200801002010B580B198
:101CC000D0F8143213B10023C0F8143209B1C0F8AF
:101CD0001012012180F8FC11027000F0ADF8002014
:101CE00010BD022010BD10B5D0F82002FEF711FE85
:101CF000BDE81040FFF72FBF10B5D0F82002FEF767
:101D0000E6FDBDE81040FFF726BF2DE9F04117467C
:101D1000044641B1D4F8140242698AB394F8FC0134
:101D2000032842D043E0D4F8F411002504F1140054
:101D3000022933D1D0E902639E4207D9F31A8360A6
:101D40009AB239462046FFF7C8FD12E04068B0FB62
:101D5000F3F103FB1101A1B9984212D3D4F8F811A1
:101D600088420ED2002211462046FFF7B6FDC4F885
:101D7000F85100231A461946204600F0ABF80DE052
:101D800012E0D4F81402C16829B194F8FC010328C8
:101D900001D1204688472046FFF7B2FD94F80002A3
:101DA000012804D184F8005201E020469047002029
:101DB000BDE8F08170B51546044641B1D4F814026F
:101DC00082693AB394F8FC01032824D025E0D4F8C2
:101DD000F41104F5827003291FD1D0E902218A424F
:101DE0000BD9531A83600846834200D303469AB244
:101DF00029462046FFF769FD0FE0D4F81402016977
:101E000029B194F8FC01032801D1204688472046D7
:101E1000FFF78EFD01E020469047002070BD0020B6
:101E2000704710B5012180F8FC11D0F81422017917
:101E300052689047002010BD10B5017831BB14499D
:101E40000222C1F8E403C0F820124FF0A04008605D
:101E5000042048600020C1E90320C1E9062008628F
:101E6000486288620846FFF791F808B1FEF759FA10
:101E700080210748FEF7EAFC402200210448FEF7D3
:101E8000E9FC802201210248FEF7E4FC002010BD9D
:101E9000C00300200A0601F07F01D0F82002C1EB48
:101EA000C10100EB810002D590F83200704790F834
:101EB000F2017047002070470020704710B51C46A3
:101EC0001346D0F820022246FEF74BFDBDE8104035
:101ED000FFF741BE10B5D0F82002FEF76CFDBDE85B
:101EE0001040FFF738BE70B500220446402311466B
:101EF000FFF7E4FF40252B46002280212046C4F84E
:101F00001051FFF7DBFF0120256284F8FC01D4F8B3
:101F1000180228B1D4F8140221794268204690476B
:101F2000002070BD90F8FD1180F8FC110020704772
:101F300010B590F8FC11032904D1D0F81412C96926
:101F400001B18847002010BD01740020704710B512
:101F5000D0F82002FFF7DAF8BDE81040FFF7FBBD2C
:101F600070B5044600F50270054600F04AF80120FD
:101F7000C4F8F401B4F80E02C4F8F80194F80802A9
:101F800010F01F010AD001290DD0022910D000F055
:101F90008001204600F011F8002070BD294620463F
:101FA00000F095F8F8E72946204600F077F9F3E7C6
:101FB0002946204600F004F9EEE710B5D0F82002DB
:101FC000FEF71DFDBDE81040FFF7C5BD10B5D0F808
:101FD0002002FFF7B4F8BDE81040FFF7BCBD90F851
:101FE000FC1180F8FD11042180F8FC1100207047DD
:101FF00010B5D0F82002FEF732FDBDE81040FFF723
:10200000AABD0A7802704A7842708A78CB7802EBCF
:10201000032242800A794B7902EB032282808A797B
:10202000C97902EB0121C18070470246002011B13D
:10203000C2F8141270470220704710B5D0F814226D
:1020400002241AB11268904700B90024204610BD3E
:1020500070B50E461A4D897804462970012928D892
:1020600094F8FC01022802D0032822D105E099B19E
:102070000320616084F8FC0109E091B16068884246
:102080000AD0C1B22046FFF719FC297861602046CA
:10209000FFF7D3FF02280CD02046BDE87040FFF7C1
:1020A00047BC022084F8FC0120466160FFF706FC73
:1020B000F2E731462046BDE87040FFF716BC00004D
:1020C0006C00002010B5FFF781FF002010BD2DE946
:1020D000F04100264B78012532460A2B43D2DFE837
:1020E00003F03C584251420805422A27FFF7A0FC62
:1020F00063E004468888C8B9C888B8B9887800F011
:102100007F0794F8FC01032810D084F8FE7139464B
:102110002046FFF71CFF2046FFF70AFC1FB10220F4
:1021200084F8FC0149E084F8FC5146E020461AE0BE
:10213000FFF78EFF41E0CB88012B14D190F8FC31E2
:10214000022B02D0032B0ED104E08260012200F1A9
:10215000080114E00122011D11E090F8FC21022A7F
:1021600004D0032A02D0FFF7C0FB26E0C560D0F8F8
:10217000041209B10321C160022200F10C01FFF732
:10218000CAFB1AE004464888012816D1C4F8045254
:102190000BE0044690F8FC01022801D00328C5D1C9
:1021A0004888012809D1C4F80422D4F814028268AE
:1021B000204690472046FFF7BBFB3046BDE8F08144
:1021C00070B50D460446287800260979C0F3411001
:1021D000012806D06878A0B301281FD003283FD17A
:1021E00007E0D4F814022946826820469047002070
:1021F00070BD94F8FC01022817D003282CD1688800
:1022000028B921B1802902D02046FFF7D6FED4F8A4
:102210001402294682682046904713E094F8FC0196
:10222000022802D0032817D103E0C9B180291BD1AD
:1022300016E06888A0B9480604D02046FFF753FD91
:10224000E5E703E02046FFF773FB09E094F8FC01A3
:10225000022807D003280BD029462046FFF745FB6C
:10226000304670BD4806FBD02046FFF7A6FEF7E7D4
:10227000080601F07F0004EB001501D5143501E0DC
:1022800005F582752046FFF705FE00B101202860A4
:10229000022229462046FFF73EFBE1E770B50546DE
:1022A00090F8FC010C4603280DD1207901280AD8AA
:1022B000D5F81402826828469047E08830B928464D
:1022C000FFF736FB02E02846FFF70FFB002070BD4A
:1022D00030B54C781D4B01220D78AA40012CD0F866
:1022E0001C4818D044EA0242C0F81C280A7800EBC7
:1022F0004210D0F8002B12040BD4D0F8002B0C891C
:10230000C4F30A042243C97843EA81410A43C0F86E
:10231000002B002030BD92B21443C0F81C480C784A
:1023200000EB4410D0F800291204F2D4D0F80029B0
:102330000D89C5F30A052A43C978890441EA845105
:102340000A431A43C0F80029E3E7000000800010A8
:10235000D0F800196FF30A01C0F80019D0F8081876
:10236000C1F34101022905D1D0F8001941F0030160
:10237000C0F80019D0F8041841F48071C0F80418AE
:102380000020704770B50446049D06990B980129FA
:102390000CD0E06840F04000E060204600F028F8F3
:1023A0004FF48030A063012D16D01DE0A16B21F405
:1023B0008031A163E1680D4A1140E160E16821F4D8
:1023C0004011E160012803D1E06840F48010E06032
:1023D000204600F00DF8E6E7A06840F00600A06097
:1023E000A06840F02000A060002070BDBFFFBDFFCE
:1023F00001220C4902E0521C8A420BD80369002BCF
:10240000F9DA026942F001020261012204E0521C81
:102410008A4201D9032070470369DB07F7D1002006
:1024200070470000400D030030B54D7801220C7854
:1024300002FA04F3012DD0F83C4816D024EA0343F5
:10244000C0F83C38D0F81C380C78A24023EA02428D
:10245000C0F81C28097800EB4110D0F8001B21F4CB
:102460000041C0F8001B002030BD9BB29C43C0F867
:102470003C48D0F81C380C78A24092B29343C0F884
:102480001C38097800EB4110D0F8001921F4004104
:10249000C0F80019E7E710B5D0F8041821F00201E0
:1024A000C0F804180320FDF7C9FF002010BD10B5C7
:1024B000D0F8041841F00201C0F804180320FDF719
:1024C000BDFF002010BD00002DE9F0470E46044678
:1024D000DDE90A0A0025DDF83480089FA16B41F48C
:1024E0000021A163B8F1000F03D1A16B41F40011E9
:1024F000A1634FF00009C4F8009ED4F80018C4F896
:102500000018012804D0D4F8000840F0030004E0CB
:10251000D4F800080BB140F00100C4F80008102105
:10252000204600F0BDFA204600F0AAFA4846C4F85A
:102530001098C4F814984FF0FF31C4F81818C4F874
:102540001C984FF0904CFF2310E000BF04EB4511A6
:10255000D1F80029002A02DAC1F800C901E0C1F867
:102560000009C1F81009C1F808396D1CAE42EDD858
:1025700000210FE004EB4112D2F8005B002D02DADB
:10258000C2F800CB01E0C2F8000BC2F8100BC2F891
:10259000083B491C8E42EDD8D4F8101821F4807104
:1025A000C4F81018012F0AD11449C4F83018D4F80F
:1025B0003018134A1143C4F83018D4F83018A06109
:1025C0006FF0804060611FB9A06940F01000A06109
:1025D000A0690C490843A061BAF1000F03D0A069BB
:1025E00040F00800A061B8F1010F03D1A0690649CD
:1025F0000843A0610020BDE8F087000000018000D2
:102600000300010000383C8004000040816821F094
:10261000010181600020704730B54D784D4C0B783A
:1026200000EB4313012D28D0D3F8105B6FF3120594
:10263000C3F8105B0B7800EB4313D3F8105B254015
:10264000C3F8105B4B690BB18B684B610B7800EBE7
:102650004313D3F8104B44F40024C3F8104B0B7809
:1026600000EB4313D3F8104B8D68C5F312052C43D0
:10267000C3F8104B012A5CD061E04D69002DD3F8FE
:1026800010593BD06FF31205C3F810590B7800EBCB
:102690004313D3F810592540C3F810594C698B687F
:1026A0009C4200D94B610B7800EB4313D3F81049DF
:1026B00044F40024C3F810490B7800EB4313D3F81B
:1026C00010494D69C5F3120554EA0504C3F81049D1
:1026D0000B7800EB4313D3F8004944F00444C3F8EB
:1026E0000049012A1ED04A6912B3D0F834280B7869
:1026F000012199400A43C0F8342829E02540C3F855
:1027000010590B7800EB4313D3F8104944F400241C
:10271000C3F810490B7800EB4313D3F810496FF35B
:102720001204D3E70A69097800EB4110C0F81429B4
:102730000EE00B7800EB4313CA68C3F8142B09783A
:1027400000EB4110D0F8001B41F00441C0F8001B21
:10275000002030BDFFFF07E00023C0F8103BD0F899
:10276000103B43F40023C0F8103BD0F8103B43F07B
:102770001803C0F8103BD0F8103B43F0C043C0F83A
:10278000103B012905D1C0F8142B4FF08021C0F86F
:10279000001B002070474B780A7800EB4212012B97
:1027A0000BD0D2F8003B23F40013C2F8003BCA78E8
:1027B000032A17D0022A15D01DE0D2F8003923F4DD
:1027C0000013C2F80039CA78032A01D0022A12D1B4
:1027D000097800EB4110D0F8001941F08051C0F8A1
:1027E000001908E0097800EB4110D0F8001B41F017
:1027F0008051C0F8001B002070474B780A7800EB2E
:102800004212012B14D0D2F8003B002B05DBD2F88A
:10281000003B23F08043C2F8003B097800EB4110F5
:10282000D0F8001B41F40011C0F8001B00207047D5
:10283000D2F80039002B05DBD2F8003923F08043B1
:10284000C2F80039097800EB4110D0F8001941F4C2
:102850000011C0F80019E9E778B54E786FF06045CF
:10286000834C0B7800EB4313012E2FD0D3F8106B61
:102870006FF31206C3F8106B0B7800EB4313D3F819
:10288000106B2640C3F8106B4B69002B7DD08C6811
:1028900023445B1EB3FBF4F39BB20C7800EB4414AF
:1028A000D4F8106B05EAC3452E43C4F8106B0C78BE
:1028B00000EB4414D4F8105B8E685E43C6F3120339
:1028C0001D43C4F8105B012A73D0B2E04E6966B3B1
:1028D000D3F810696FF31206C3F810690B7800EB98
:1028E0004313D3F810692640C3F810694C698B680C
:1028F0001C44641EB4FBF3F305EAC3440B7800EBFD
:102900004313D3F810592C43C3F810490B7800EB4C
:102910004313D3F810494D69C5F312052C43C3F88E
:102920001049CB78012B16D027E0D3F81059254059
:10293000C3F810590B7800EB4313D3F8104944F453
:102940000024C3F810490B7800EB4313D3F8104967
:102950006FF312040FE00B7800EB4313D3F8104928
:1029600024F0C044C3F810490B7800EB4313D3F8AC
:10297000104944F00054C3F81049012A12D0CB7812
:10298000012B17D04B692BB300E037E0D0F8343877
:102990000D780124AC402343C0F83438CB78012BA8
:1029A00008D017E00C7800EB44140B69C4F8143914
:1029B000F4E738E0D0F80838DB050B7800EB431378
:1029C000D3F8004902D444F0005401E044F08054AC
:1029D000C3F800490B7800EB4313D3F8004944F0E7
:1029E0000444C3F80049CB78012B3ED100928A8A77
:1029F00093B20A78C96800F0E7F836E00B7800EB8C
:102A00004313D3F8104B8D68C5F312052C43C3F85C
:102A1000104B0B7800EB4313D3F8104B44F4002415
:102A2000C3F8104B4FE70B7800EB4313CA68C3F8A9
:102A3000142BCA78012A0FD1D0F80828D2050A78B9
:102A400000EB4212D2F8003B02D443F0005301E005
:102A500043F08053C2F8003B097800EB4110D0F8F6
:102A6000001B41F00441C0F8001B002078BD0000AD
:102A7000FFFF07E0816841F001018160002070479D
:102A8000002110220261054A491C914201D903200C
:102A900070470369DB06F7D400207047400D030040
:102AA0000022202343EA811101610549521C8A4218
:102AB00001D90320704703699B06F7D400207047B3
:102AC000400D03000021D0F8082812F0060F15D0A1
:102AD000D0F80828C2F34102012A0CD0D0F8082807
:102AE000C2F34102032A06D0D0F80808C0F341001F
:102AF000022802D002E0032100E0022108467047CC
:102B0000406900F001007047D0F81818D0F81C0890
:102B1000084080B27047D0F81818D0F81C08084058
:102B2000000C7047D0F81038D0F83428CA4002F0B2
:102B3000010243EAC21200EB4110D0F8080910402C
:102B4000704700EB4111D1F8081BD0F81408084079
:102B50007047416980690840704710B503460020FE
:102B6000D21C920803F5805303E01C6841F8044B23
:102B7000401C9042F9D3084610BD10B5C26822F03F
:102B8000C042C260012901D021B107E0C16841F013
:102B9000005102E0C16841F08041C1603220FDF780
:102BA0004DFC002010BDD0F8002822F4FE62C0F8D1
:102BB0000028D0F800284FF4FE6303EA01110A430D
:102BC000C0F800280020704730B50024039D6DB97F
:102BD000DB1C9B0800EB023000F5805004E000BFD6
:102BE00051F8042B0260641C9C42F9D3002030BDD4
:102BF000FEE702E008C8121F08C1002AFAD1704798
:102C00007047002001E001C1121F002AFBD170476C
:102C100010B5002821D0114B0022001F196803E0D5
:102C2000814203D80A4649680029F9D152B1136894
:102C3000841A9C4204D1006818441060104602E0D7
:102C4000506000E0186039B102680B1A934203D15A
:102C50000B681A4402604968416010BD940100206D
:102C60002DE9F0410124234E270339463046FDF774
:102C70003DFD214D50B96420FDF7E0FB394630465B
:102C8000FDF734FD08B90420E87000244FF4006813
:102C900041463046FDF72AFD50B96420FDF7CEFBD2
:102CA00041463046FDF722FD08B901202870002476
:102CB0004FF4806739463046FDF718FDB8B96420F7
:102CC000FDF7BCFB39463046FDF710FD20B9414603
:102CD0003046FDF70BFD28B139463046FDF706FDBD
:102CE00010B103E0032000E00220287000242046F9
:102CF000BDE8F081000802405200002010B5082213
:102D000008490948FEF770FF6420FDF797FB054965
:102D1000082208310448FEF767FF024800210170CD
:102D2000C17010BD520000209C010020FDF7F2FC94
:102D3000FEF777FDFEF7B8FCFEF7F0FCFFF790FF1B
:102D400008B9FFF7DBFF6420FDF778FBF6E700002A
:102D5000F0B50B30154D20F007010024144A0FE0A8
:102D600003688B420BD38B4205D95E1A4318476820
:102D7000C3E9006700E04368136002C004E0021D7D
:102D800010680028ECD12046002802D1286808B13C
:102D90000020F0BD064A07481060074A121A22F0C8
:102DA0000702C0E9002401202860D7E7980100202D
:102DB00094010020CC090020C80B00200000000076
:102DC000000000000102030406070809EC2D0008BA
:102DD000000000209C010000C8020008F02E00083E
:102DE0009C0100202C0E0000022C00083201136907
:102DF000191B0899041AA5041ACD041AF9041A49D2
:102E0000041A7504170403090412013202164083E0
:102E1000042B571D0201020335032F1A035324F418
:102E200013C11B1B087B04130D1C82081A6F1001B1
:102E3000101A991469041AB5041409022213010125
:102E400025E03209041501030102150921110114BD
:102E500001224A160705810304220AE9246A012493
:102E60003A3F243A08246936314B0A06D819CF1163
:102E7000100E05010906A101050719E029E715282B
:102E80001A25017501950881029501750881039540
:102E90000575010508190129059112180803910308
:102EA00095067508261AFF3011142965812AC0403D
:102EB0001702A1010901A11B05092A2A03443D9516
:102EC000037501441C058101205817300931093868
:102ED0001581257F750895038106C0093C05FF090A
:102EE000016DA00B02B12275069501B101C0000071
:040000050800018569
:00000001FF
